:020000040000FA
:100000000C9462000C948A000C948A000C948A0070
:100010000C948A000C948A000C948A000C94680456
:100020000C948A000C948A000C948A000C94AC0303
:100030000C948A000C948A000C948A000C948A0018
:100040000C9462030C948A000C9430030C940A0301
:100050000C948A000C948A000C948A000C948A00F8
:100060000C948A000C948A000000000023002600F3
:10007000290000000000240027002A0000000000E2
:10008000250028002B0004040404040404040202D4
:100090000202020203030303030301020408102007
:1000A0004080010204081020010204081020000012
:1000B0000008000201000003040700000000000027
:1000C0000000450511241FBECFEFD8E0DEBFCDBF35
:1000D00011E0A0E0B1E0E2EBF2E202C005900D9287
:1000E000A432B107D9F722E0A4E2B1E001C01D9229
:1000F000A93DB207E1F710E0C2E6D0E004C02197C5
:10010000FE010E945111C136D107C9F70E94A7050F
:100110000C9457110C940000AF92BF92CF92DF92D3
:10012000EF92FF920F931F93CF93DF936C017B01AC
:100130008B01040F151FEB015E01AE18BF08C0173D
:10014000D10759F06991D601ED91FC910190F081B0
:10015000E02DC6010995892B79F7C501DF91CF9173
:100160001F910F91FF90EF90DF90CF90BF90AF90D5
:100170000895FC01538D448D252F30E0842F90E0AD
:10018000821B930B541710F0CF9608950197089592
:10019000FC01918D828D981761F0A28DAE0FBF2F5B
:1001A000B11D5D968C91928D9F5F9F73928F90E0B1
:1001B00008958FEF9FEF0895FC01918D828D981720
:1001C00031F0828DE80FF11D858D90E008958FEF5D
:1001D0009FEF0895FC01918D228D892F90E0805C26
:1001E0009F4F821B91098F739927089582E491E0B4
:1001F0000E94EA0021E0892B09F420E0822F089573
:1002000080E090E0892B29F00E94F60081110C9487
:1002100000000895FC01A48DA80FB92FB11DA35AA9
:10022000BF4F2C91848D90E001968F739927848F16
:10023000A689B7892C93A089B1898C918370806439
:100240008C93938D848D981306C00288F389E02DDA
:1002500080818F7D80830895EF92FF920F931F938B
:10026000CF93DF93EC0181E0888F9B8D8C8D981369
:100270001AC0E889F989808185FF15C09FB7F89475
:10028000EE89FF896083E889F989808183708064C1
:1002900080839FBF81E090E0DF91CF911F910F910C
:1002A000FF90EF900895F62E0B8D10E00F5F1F4F1B
:1002B0000F731127E02E8C8D8E110CC00FB607FC2A
:1002C000FACFE889F989808185FFF5CFCE010E94B8
:1002D0000A01F1CFEB8DEC0FFD2FF11DE35AFF4F1B
:1002E000F0829FB7F8940B8FEA89FB898081806246
:1002F000CFCFCF93DF93EC01888D8823B9F0AA8903
:10030000BB89E889F9898C9185FD03C0808186FDD0
:100310000DC00FB607FCF7CF8C9185FFF2CF80811F
:1003200085FFEDCFCE010E940A01E9CFDF91CF9189
:100330000895833081F028F4813099F08230A9F05B
:1003400008958730A9F08830C9F08430B1F48091E5
:1003500080008F7D03C0809180008F778093800024
:10036000089584B58F7784BD089584B58F7DFBCFC4
:100370008091B0008F778093B00008958091B00095
:100380008F7DF9CF1F93CF93DF93282F30E0F901B2
:10039000E255FF4F8491F901E656FF4FD491F901E0
:1003A000EA57FF4FC491CC23A9F0162F81110E9468
:1003B0009901EC2FF0E0EE0FFF1FE458FF4FA591DD
:1003C000B4918FB7F894EC91111108C0D095DE2349
:1003D000DC938FBFDF91CF911F910895DE2BF8CF73
:1003E000CF93DF9390E0FC01E656FF4F24918A57AC
:1003F0009F4FFC0184918823D1F090E0880F991FD2
:10040000FC01EE58FF4FA591B491FC01E458FF4F59
:10041000C591D49161110EC09FB7F8948C91E22FD1
:10042000E0958E238C932881E223E8839FBFDF91A0
:10043000CF9108958FB7F894EC91E22BEC938FBF96
:10044000F6CF3FB7F89480912A0190912B01A091AB
:100450002C01B0912D0126B5A89B05C02F3F19F0A6
:100460000196A11DB11D3FBFBA2FA92F982F882734
:10047000BC01CD01620F711D811D911D42E0660F0F
:10048000771F881F991F4A95D1F70895CF92DF9261
:10049000EF92FF92CF93DF93EC01072E000C880BB5
:1004A000990B0E94DB0F6B017C0120E030E040E4FF
:1004B0005FE30E948B1020E030E048E452E40E94A9
:1004C000310F0E94A30FC617D707D4F020E030E009
:1004D00040EA5FE3C701B6010E948B1020E030E0E4
:1004E00048E452E40E94310F20E030E040E85FE34E
:1004F0000E94C00E0E94A30F21E06C177D070CF430
:1005000020E0822F90E0DF91CF91FF90EF90DF907D
:10051000CF9008958F929F92AF92BF92CF92DF9229
:10052000EF92FF920F931F93CF93DF93FC012081F3
:100530003181E0913E01F0913F0101E010E02E1782
:100540003F070CF045C0D901AA0FBB1FE0913C0149
:10055000F0913D01EA0FFB1FA080B1808901009559
:1005600010950170112720FD27C02CE93FEFEA010B
:100570006B017C014901840E951EB401C5010E94E6
:10058000460221E030E0892BD1F48C0E9D1EB4018F
:10059000C5010E94460222E030E0892B81F4BE01B1
:1005A000680D791DC5010E94460223E030E0892BC9
:1005B00031F40FEF1FEF0CC024E630E0D8CFF60186
:1005C0008081918101968217930784F491838083BF
:1005D000C801DF91CF911F910F91FF90EF90DF90B5
:1005E000CF90BF90AF909F908F900895118210820E
:1005F000F701808191810196E9CFFC0101900020F3
:10060000E9F73197AF01481B590BBC0182E491E037
:100610000C948C001F920F920FB60F9211242F93FF
:100620003F934F935F936F937F938F939F93AF937A
:10063000BF93EF93FF9382E491E00E940A01FF9140
:10064000EF91BF91AF919F918F917F916F915F914A
:100650004F913F912F910F900FBE0F901F901895C3
:100660001F920F920FB60F9211242F938F939F9387
:10067000EF93FF93E0915201F09153018081E0915B
:100680005801F091590182FD1BC0908180915B015E
:100690008F5F8F7320915C01821741F0E0915B01C5
:1006A000F0E0EE5BFE4F958F80935B01FF91EF9141
:1006B0009F918F912F910F900FBE0F901F901895C3
:1006C0008081F4CF1F920F920FB60F9211242F93B7
:1006D0003F938F939F93AF93BF9380912601909107
:1006E0002701A0912801B09129013091250123E033
:1006F000230F2D3758F50196A11DB11D209325011B
:100700008093260190932701A0932801B09329019B
:1007100080912A0190912B01A0912C01B0912D0183
:100720000196A11DB11D80932A0190932B01A093E6
:100730002C01B0932D01BF91AF919F918F913F916B
:100740002F910F900FBE0F901F90189526E8230F42
:100750000296A11DB11DD2CF1F920F920FB60F921C
:1007600011242F933F934F935F936F937F938F93B6
:100770009F93AF93BF93CF93DF93EF93FF938091BA
:100780002401C0910302D0E087FF24C010928500AD
:1007900010928400809124018F5F809324018091C6
:1007A0002401082E000C990B8C179D0724F48091CE
:1007B00024018C30C4F180918400909185000496CE
:1007C00080349C4908F47AC080918400909185001F
:1007D000049676C080912401082E000C990B8C178A
:1007E0009D07C4F6E09124018E2FEE0F990BFC01BA
:1007F000EE0FFF1FE80FF91FE152FE4F808186FFC9
:10080000C9CFE09124018E2FEE0F990BFC01EE0F62
:10081000FF1FE80FF91FE152FE4F808160E08F73E8
:100820000E94C201B7CF2091840030918500E091F1
:1008300024018E2FEE0F990BFC01EE0FFF1FE80F26
:10084000F91FE152FE4F81819281820F931F909395
:10085000890080938800E09124018E2FEE0F990B80
:10086000FC01EE0FFF1FE80FF91FE152FE4F8081E0
:1008700086FF11C0E09124018E2FEE0F990BFC0131
:10088000EE0FFF1FE80FF91FE152FE4F808161E07C
:100890008F730E94C201FF91EF91DF91CF91BF91C1
:1008A000AF919F918F917F916F915F914F913F9108
:1008B0002F910F900FBE0F901F90189580E49CE928
:1008C00090938900809388008FEF80932401E3CF79
:1008D0001F920F920FB60F9211242F933F934F93B5
:1008E0005F936F937F938F939F93AF93BF93CF93B8
:1008F000DF93EF93FF932091050230E0F901E25579
:10090000FF4F8491F901E656FF4FD491F901EA5760
:10091000FF4FC491CC2379F081110E949901EC2FF3
:10092000F0E0EE0FFF1FE859FF4FA591B491EC9155
:10093000ED2381E009F480E02091090230910A0260
:100940002F5F3F4F30930A022093090290910802D3
:10095000953618F096E0909304029091040294303A
:1009600009F466C0B8F49230F1F0933009F444C051
:1009700090910702992309F46BC081117CC080918A
:100980000602882309F463C08091060261E00E9498
:10099000C2015EC0953009F457C0963049F791E026
:1009A0009093D5024FC08111E3CF2091090230917D
:1009B0000A022436310528F410920A021092090224
:1009C000D7CF1092D50210920802E091080291E070
:1009D0009E0F90930802F0E02091090230910A02E4
:1009E000EE0FFF1FEC5FFD4F3087278310920A0246
:1009F0001092090293E019C0813009F0B9CFE0915B
:100A0000080291E09E0F90930802F0E02091090205
:100A100030910A02EE0FFF1FEC5FFD4F30872783F6
:100A200010920A021092090294E090930402A0CF5F
:100A3000882359F22091090230910A0225363105A6
:100A400008F496CF95E0F1CF811192CFB5CF2D9AD2
:100A5000FF91EF91DF91CF91BF91AF919F918F91D6
:100A60007F916F915F914F913F912F910F900FBEAA
:100A70000F901F90189580910602882321F0809195
:100A8000060260E084CF2D98E3CF109245011092CA
:100A9000440188EE93E0A0E0B0E08093460190939B
:100AA0004701A0934801B093490184E091E09093FD
:100AB00043018093420185EC90E090934F01809335
:100AC0004E0184EC90E0909351018093500180ECB2
:100AD00090E0909353018093520181EC90E09093C9
:100AE00055018093540182EC90E0909357018093DC
:100AF000560186EC90E09093590180935801109232
:100B00005B0110925C0110925D0110925E018BE01E
:100B10008093050210920702809103028C3098F4B2
:100B200091E0980F909303028093D60290E0FC012D
:100B3000EE0FFF1FE80FF91FE152FE4F88EB9BE01D
:100B40009283818308958FEF8093D6020895CF9387
:100B5000DF93CDB7DEB7A9970FB6F894DEBF0FBE0F
:100B6000CDBF789484B5826084BD84B5816084BD36
:100B700085B5826085BD85B5816085BD80916E003B
:100B8000816080936E00109281008091810082606C
:100B900080938100809181008160809381008091A9
:100BA00080008160809380008091B1008460809398
:100BB000B1008091B00081608093B00080917A0094
:100BC000846080937A0080917A00826080937A00BA
:100BD00080917A00816080937A0080917A008068A9
:100BE00080937A001092C1008091D6028C3008F078
:100BF00051C061E089E00E94F0018091D602282F67
:100C000030E0F901EE0FFF1FE20FF31FE152FE4F3C
:100C10009081907C996090831092D7021092D802B4
:100C20002CE0622F0E940811829FB001112430E055
:100C300020E0AB01420F531FFA01EE0FFF1FE40F3C
:100C4000F51FE152FE4F908196FD16C02F5F3F4F7A
:100C50002C30310571F781110FC01092800082E0B5
:100C6000809381001092850010928400B19A809147
:100C70006F00826080936F00E091D6028E2F90E02B
:100C8000FC01EE0FFF1FE80FF91FE152FE4F8081BC
:100C900080648083F89412E01093B0001093B10048
:100CA00084E68093B3001092B200109370007894A1
:100CB00010930402109208028091050260E00E94E5
:100CC000F00160E08EE00E94F001E0915201F091AD
:100CD00053011083E0914E01F0914F011082E09199
:100CE0005001F09151018FEC808310925A01E091F4
:100CF0005601F091570186E08083E0915401F09114
:100D00005501808180618083E0915401F09155010B
:100D1000808188608083E0915401F0915501808149
:100D200080688083E0915401F091550180818F7D2E
:100D3000808344244A94542C320180E480937C00C4
:100D400080917A00806480937A0080917A0086FD99
:100D5000FCCF80917800A0917900BA2FA82F2FEFB7
:100D600030E00E9414112FEF33E040E050E00E9489
:100D70005C0E69017A013093310120933001F7FE56
:100D800073C06DE282E491E00E942C012227332798
:100D9000A9012C193D094E095F0919A28E010F5DA9
:100DA0001F4FCA01B9012AE030E040E050E00E9444
:100DB0008E0E605DD8016E938D01211531054105C0
:100DC000510579F70115110519F0C8010E94FD02BE
:100DD00082E191E00E94FD028BE092E090933D0160
:100DE00080933C018091080290E090933F018093B2
:100DF0003E018091D50290E09093410180934001A3
:100E000080910402853009F092C680910D02909184
:100E10000E02885891098D35910508F067C08091C0
:100E200008028430B9F580910F02909110028097EA
:100E3000479780F5809111029091120209970997C6
:100E400048F510923B0110923A01409236015092BF
:100E50003701609238017092390183E090E09093FD
:100E60003301809332014DC319A28E010F5D1F4FD4
:100E7000CA01B9012AE030E040E050E00E948E0E45
:100E8000605DF80162938F0121153105410551051F
:100E900079F798CF80910802843440F180910F0255
:100EA00090911002825491098E9700F590E080E0B5
:100EB00040E050E0BA01FC01EF5EFD4F208131813E
:100EC000295031092930310588F4FC01ED5EFD4FD0
:100ED00020813181275131092231310510F12081E2
:100EE0003181265031092730310598F1809108026F
:100EF0008A3108F462C080910B0290910C02843F09
:100F0000914060F510923B0110923A0140923601F7
:100F10005092370160923801709239018BE090E075
:100F20009ECF440F551F661F771F4160049680387F
:100F3000910509F680E290E090933B0180933A019D
:100F40004093360150933701609338017093390113
:100F500084CF440F551F661F771FE8CF80910D0285
:100F600090910E0285974B9740F5E4E0F2E082E025
:100F700090E040E050E0BA01DC01119620910802B7
:100F80002A171B0609F00CF4F7C023853485275077
:100F900031092730310508F0EEC02585368523510B
:100FA00031092F30310508F4D9C0258536852A50FE
:100FB00031092930310508F4D9C0809108028A31FD
:100FC000F0F180910B0290910C028032934008F472
:100FD00099CF80910D0290910E02C697869778F571
:100FE00080910F0290911002C697869740F5E1E13B
:100FF000F2E083E090E040E050E0BA01DC011196BD
:10100000209108022A171B0609F00CF4DCC020818D
:1010100031812C5031092B30310508F0D3C02281A9
:101020003381255231092B31310508F4BEC02281AC
:1010300033812C5031092A30310508F4BEC080912B
:101040000802823258F180910D0290910E020697AB
:10105000079720F5E1E1F2E082E090E0C12CD12C8D
:1010600076019C012F5F3F4F409108024217130603
:1010700009F00CF4D5C0DF0112974D915C911197E6
:101080004E5151094731510508F4B4C04D915C915E
:101090004C5051094B30510508F4BCC01BA21AA298
:1010A000E1E0F0E0FA83E983809108028D3008F4F2
:1010B000E8C049E753E0BE016E5D7F4FCE01019667
:1010C0000E948A02892B09F0DCC049E753E0BE0187
:1010D0006E5D7F4FCE0101960E948A02019709F052
:1010E000D0C049E753E0BE016E5D7F4FCE0101964F
:1010F0000E948A028C01892B09F0C3C0812C912C9B
:1011000054012091080289819A812817190609F053
:101110000CF4A8C049E753E0BE016E5D7F4FCE01DD
:1011200001960E948A027C0149E753E0BE016E5D90
:101130007F4FCE0101960E948A02F1E0EF16F10482
:1011400009F087C0892B09F09CC0880C991CAA1C47
:10115000BB1C689480F80F5F1F4FD3CF440F551FFF
:10116000661F771F41600296349606CF440F551FC5
:10117000661F771FF8CFCD010197959587959093BE
:101180003B0180933A010C972CF410923B01109292
:101190003A0113CF409336015093370160933801E1
:1011A0007093390184E090E05ACE440F551F661FBA
:1011B000771F41600296349621CF440F551F661F5A
:1011C000771FF8CFCD0101979595879590933B01B7
:1011D00080933A010C972CF410923B0110923A0143
:1011E0002ECF4093360150933701609338017093AE
:1011F000390194CECC0CDD1CEE1CFF1C6894C0F8A9
:10120000408151813496435051094530510538F49D
:10121000029627CFCC0CDD1CEE1CFF1CF1CFC901C0
:1012200001979595879590933B0180933A0140975C
:101230002CF410923B0110923A0130CFC09236014B
:10124000D0923701E0923801F09239018CE090E0C1
:1012500006CEEF28B1F40197A1F4880C991CAA1CC2
:10126000BB1C79CF10933B0100933A018092360169
:1012700090923701A0923801B092390181E090E05C
:10128000EECD1BA21AA2A1E0B0E0BA83A98380919F
:101290003E0190913F01181619060CF07EC0E091B6
:1012A0003C01F0913D0182E090E09A838983828144
:1012B000938189974E9708F070C083E090E09A83FD
:1012C0008983848195810B970A9708F066C04CEB5F
:1012D00051E0BE016E5D7F4FCE0101960E948A02F1
:1012E0008C01892B09F059C04CEB51E0BE016E5DB9
:1012F0007F4FCE0101960E948A02019709F04DC0EE
:10130000812C912C540120913E0130913F01898123
:101310009A81821793070CF0E2C04CEB51E0BE01BA
:101320006E5D7F4FCE0101960E948A027C010330E0
:10133000110539F14CEB51E0BE016E5D7F4FCE01DE
:1013400001960E948A026C010330110561F44CEB96
:1013500051E0BE016E5D7F4FCE0101960E948A0270
:10136000C816D906D1F4E114F10409F4ABC0EA942B
:10137000EF2899F4CD2889F4880C991CAA1CBB1C71
:10138000ABC04CEB51E0BE016E5D7F4FCE010196CC
:101390000E948A02E816F90669F2E0913C01F09198
:1013A0003D0182819381C697869778F584819581E6
:1013B0004B97459750F5DF0116967F0126ECE20E1C
:1013C000F11C20E030E040E050E060E070E080E0C0
:1013D00090E00D911C9111970950110908301105E9
:1013E000A0F412960D911C911397015111090D3023
:1013F000110508F4AAC012960D911C911397045080
:1014000011090530110508F4C5C08091080289331F
:1014100080F182819381895791098335910548F53F
:1014200084819581CA97899720F59F012A5F3F4F54
:10143000C12CD12C760143E050E0D9016D917C9113
:1014400011976A5071096930710598F412966D917F
:101450007C911397665171096131710508F49EC042
:1014600012966D917C91665071096730710508F490
:10147000C4C080910802823209F0C4C08281938185
:101480000A97099708F0BEC0A0910802B0E0A150E9
:10149000B048AA0FBB1FAE0FBF1F8D919C910A973A
:1014A000099708F0AFC010923B0110923A014092A8
:1014B000360150923701609238017092390186E00E
:1014C00090E0CDCCCA94CD2809F067CF880C991C48
:1014D000AA1CBB1C689480F80F5F1F4F14CF109399
:1014E0003B0100933A018092360190923701A0921D
:1014F0003801B0923901E2E0F0E0F0933301E0937B
:10150000320182E080930402109208028091360139
:1015100090913701A0913801B0913901873EF8E1EF
:101520009F07FFEFAF07B10509F0BBC38091300102
:10153000909131018E3691050CF400C38CE390E05C
:1015400090932F0180932E01F2C201E00E941B11A3
:1015500021601496EA16FB0609F03BCF2093360172
:1015600030933701409338015093390100E20E94D3
:101570003611209334013093350185E090E090934B
:1015800033018093320180E390E090933B0180939C
:101590003A01B7CF01E00E941B11DBCFD701C60192
:1015A000880F991FAA1FBB1F6C017D016894C0F8AA
:1015B0004E5F5F4F2C5F3F4F4B33510509F03DCFDE
:1015C0009F012A583F4FD9012D913C912A50310952
:1015D0002930310508F04DCF2CE130E030933B014C
:1015E00020933A01C0923601D0923701E09238013F
:1015F000F09239018AE090E032CCCC0CDD1CEE1C7C
:10160000FF1CD6CF8281938189579109833591053B
:1016100060F580910802813240F184819581CA97FA
:10162000899718F59F012A5F3F4FC12CD12C760175
:1016300043E050E0D9016D917C9111976A50710996
:101640006930710590F412966D917C9113976651F3
:1016500071096131710580F112966D917C9166502E
:1016600071096730710508F454C0828193818C54EC
:101670009109C59708F081C080910802843009F073
:101680004DC0848195818097479708F047C0868137
:1016900097810997099708F041C010923B01109279
:1016A0003A014092360150923701609238017092AF
:1016B000390187E090E0D3CBD701C601880F991F8D
:1016C000AA1FBB1F6C017D016894C0F84E5F5F4F7D
:1016D0002C5F3F4F4332510509F0ACCF9F012A5B8D
:1016E0003F4FD9012D913C912A50310929303105C4
:1016F00008F0BBCF20E130E030933B0120933A016A
:10170000C0923601D0923701E0923801F09239014F
:10171000D6CECC0CDD1CEE1CFF1CD8CF809108026D
:10172000843458F18481958189549109C39728F5AF
:101730009F012A5F3F4FBF016A577F4FC12CD12CB9
:101740007601D9014D915C91119749505109493069
:10175000510598F412964D915C9113974651510999
:101760004131510508F4A2C012964D915C9146504A
:1017700051094730510508F4B8C0809108028634F9
:10178000C0F1828193810C970B9798F584819581A4
:101790000997099770F5868197818C974F9748F53F
:1017A0008085918589974D9720F59F01265F3F4F52
:1017B000C12CD12C760145E050E0D9016D917C918E
:1017C00011976C5071096B30710598F412966D91F8
:1017D0007C9113976E5171096731710508F48AC0C5
:1017E00012966D917C91695071096930710508F408
:1017F000B0C080910802883508F4BAC08281938114
:10180000855891098B35910508F0B2C08481958186
:10181000825491098E9708F0ABC08F01045C1F4F72
:101820008DE190E030E020E0409108024450550BFB
:101830008417950714F5A80142505109DA014D911A
:101840005C91495051094830510508F091C0BC01E4
:101850006F5F7F4FD8014D915C91119747505109AF
:101860004730510508F47AC04D915C9148515109B7
:101870004231510508F479C0CB01019795958795C0
:1018800090933B0180933A018A970CF471C0C9018F
:10189000330FAA0BBB0B8093360190933701A093B3
:1018A0003801B093390189E090E0D9CAD701C60167
:1018B000880F991FAA1FBB1F6C017D016894C0F897
:1018C0002C5F3F4F6217730709F03BCF20E230E0F7
:1018D00030933B0120933A01C0923601D0923701F8
:1018E000E0923801F0923901E4CECC0CDD1CEE1C04
:1018F000FF1CE6CFD701C601880F991FAA1FBB1F87
:101900006C017D016894C0F84E5F5F4F2C5F3F4FC4
:101910004534510509F051CF9F0126573F4FD9015A
:101920002D913C912C5031092B30310508F061CFBD
:1019300020E230E030933B0120933A01C09236011F
:10194000D0923701E0923801F092390188E090E0BE
:1019500086CACC0CDD1CEE1CFF1CD6CF220F331F19
:10196000216002960C5F1F4F5FCF220F331FF9CF0C
:1019700080910802803279F58281938106970697DB
:1019800050F5848195810997099728F59F012A5F71
:101990003F4FBF01625C7F4FC12CD12C7601D90132
:1019A0004D915C911197465051094630510598F47C
:1019B00012964D915C91139749515109433151054C
:1019C00008F48AC012964D915C91495051094930F2
:1019D000510508F4A2C080913E0190913F019DA362
:1019E0008CA306970CF49EC08F010E5F1F4F83E0FF
:1019F000282E312C95ECC92E9DE9D92E9CE1E92E9B
:101A000091E8F92ED80114966D917C911597AD90BF
:101A1000BC9090E080E00E94D90F6EA37FA388A7BE
:101A200099A7B50190E080E00E94D90F4B015C01BD
:101A30002DEC3CEC4CE45FE30E948B109B01AC016D
:101A40006EA17FA188A599A50E942C0FF0E0E0E08F
:101A500087FD16C02DEC3CEC4CE45FE36EA17FA14A
:101A600088A599A50E948B109B01AC01C501B4010A
:101A70000E942C0FE2E0F0E087FD02C0E1E0F0E020
:101A8000A701960163E971E080E091E00E94F810FF
:101A90006F01FF0FEE08FF08C626D726E826F926B5
:101AA000BFEF2B1A3B0A0E5F1F4FECA1FDA1E21501
:101AB000F30509F0A7CFC0923601D0923701E0922A
:101AC0003801F092390180E290E090933B018093DD
:101AD0003A018FEF9FEFC3C9D701C601880F991F45
:101AE000AA1FBB1F6C017D016894C0F82C5F3F4F9B
:101AF0006217730709F053CF2EE030E030933B01BB
:101B000020933A01C0923601D0923701E092380119
:101B1000F09239018FE090E0A2C9CC0CDD1CEE1CE4
:101B2000FF1CE4CF82E080930402109208028091AF
:101B30003001909131018E36910564F485E191E098
:101B40000E94FD0282E191E00E94FD0210922F01AD
:101B500010922E01A0912E01B0912F01A032F2E03F
:101B6000BF07DCF58091D702E8E8CE2ED12CC81A49
:101B7000D10887FDD394CC0CDD1CCC0CDD1C0D2CC6
:101B8000000CEE08FF088091D80228E532E0281BFF
:101B9000310987FD3395220F331F220F331F032E88
:101BA000000C440B550B2C193D094E095F09A53B50
:101BB000B10514F0A4EBB0E0B7FF02C0B0E0A0E0C4
:101BC0000E94860E24EB30E040E050E00E945C0E64
:101BD000C20ED31EE41EF51ED6012091D6022C3073
:101BE00078F53091D70288E890E0831B910937FDA2
:101BF0009395880F991F880F991FA817B90784F02C
:101C00003091D80288E592E0831B910937FD9395C6
:101C1000880F991F880F991FA817B9070CF4CD01D9
:101C20000297880F991F4FB7F89430E0F901EE0F33
:101C3000FF1FE20FF31FE152FE4F928381834FBFDC
:101C40000E9421024B015C0188ECC82ED12CE12CB2
:101C5000F12C0E942102681979098A099B09683EC2
:101C6000734081059105A8F321E0C21AD108E1086B
:101C7000F10888EE880E83E0981EA11CB11CC114E7
:101C8000D104E104F10429F780E090E0892B09F404
:101C900054C80E94F600882309F44FC80E9400002F
:101CA0004CC8853B9A44AF4FB10509F040CF109224
:101CB0002F0110922E013BCF052E97FB1EF40094AE
:101CC0000E94730E57FD07D00E948E0E07FC03D0B2
:101CD0004EF40C94730E50954095309521953F4FDE
:101CE0004F4F5F4F089590958095709561957F4F08
:101CF0008F4F9F4F08950E94B00EA59F900DB49FE7
:101D0000900DA49F800D911D11240895B7FF0C9490
:101D10007B0E0E947B0E821B930B0895A1E21A2E6C
:101D2000AA1BBB1BFD010DC0AA1FBB1FEE1FFF1F7F
:101D3000A217B307E407F50720F0A21BB30BE40BCF
:101D4000F50B661F771F881F991F1A9469F7609516
:101D50007095809590959B01AC01BD01CF010895D0
:101D6000A29FB001B39FC001A39F700D811D1124DC
:101D7000911DB29F700D811D1124911D0895505821
:101D8000BB27AA270E94D70E0C9451100E94431023
:101D900038F00E944A1020F039F49F3F19F426F4DD
:101DA0000C9440100EF4E095E7FB0C943A10E92FE8
:101DB0000E94621058F3BA176207730784079507E9
:101DC00020F079F4A6F50C9484100EF4E0950B2E17
:101DD000BA2FA02D0B01B90190010C01CA01A0017D
:101DE0001124FF27591B99F0593F50F4503E68F1D8
:101DF0001A16F040A22F232F342F4427585FF3CF19
:101E0000469537952795A795F0405395C9F77EF4E9
:101E10001F16BA0B620B730B840BBAF09150A1F032
:101E2000FF0FBB1F661F771F881FC2F70EC0BA0FB8
:101E3000621F731F841F48F4879577956795B79540
:101E4000F7959E3F08F0B0CF9395880F08F099273B
:101E5000EE0F9795879508950E94161008F481E07B
:101E600008950E94450F0C9451100E944A1058F09A
:101E70000E94431040F029F45F3F29F00C943A107F
:101E800051110C9485100C9440100E94621068F35C
:101E90009923B1F3552391F3951B550BBB27AA2723
:101EA00062177307840738F09F5F5F4F220F331F5D
:101EB000441FAA1FA9F335D00E2E3AF0E0E832D025
:101EC00091505040E695001CCAF72BD0FE2F29D028
:101ED000660F771F881FBB1F261737074807AB07FA
:101EE000B0E809F0BB0B802DBF01FF2793585F4F6F
:101EF0003AF09E3F510578F00C943A100C948510FE
:101F00005F3FE4F3983ED4F3869577956795B79550
:101F1000F7959F5FC9F7880F911D9695879597F95B
:101F20000895E1E0660F771F881FBB1F62177307D4
:101F30008407BA0720F0621B730B840BBA0BEE1FE9
:101F400088F7E09508950E94AA0F6894B1110C9447
:101F5000851008950E946A1088F09F5798F0B92F55
:101F60009927B751B0F0E1F0660F771F881F991FCE
:101F70001AF0BA95C9F714C0B13091F00E948410DC
:101F8000B1E008950C948410672F782F8827B85FEC
:101F900039F0B93FCCF3869577956795B395D9F726
:101FA0003EF490958095709561957F4F8F4F9F4F30
:101FB0000895E89409C097FB3EF49095809570953C
:101FC00061957F4F8F4F9F4F9923A9F0F92F96E985
:101FD000BB279395F695879577956795B795F111FA
:101FE000F8CFFAF4BB0F11F460FF1BC06F5F7F4F97
:101FF0008F4F9F4F16C0882311F096E911C07723A9
:1020000021F09EE8872F762F05C0662371F096E8B1
:10201000862F70E060E02AF09A95660F771F881F80
:10202000DAF7880F9695879597F90895990F000824
:10203000550FAA0BE0E8FEEF16161706E807F9079A
:10204000C0F012161306E407F50798F0621B730B35
:10205000840B950B39F40A2661F0232B242B252BB6
:1020600021F408950A2609F4A140A6958FEF811D59
:10207000811D089597F99F6780E870E060E00895FA
:102080009FEF80EC089500240A9416161706180690
:102090000906089500240A9412161306140605066C
:1020A0000895092E0394000C11F4882352F0BB0FFD
:1020B00040F4BF2B11F460FF04C06F5F7F4F8F4F60
:1020C0009F4F089557FD9058440F551F59F05F3F9B
:1020D00071F04795880F97FB991F61F09F3F79F04A
:1020E00087950895121613061406551FF2CF4695CC
:1020F000F1DF08C0161617061806991FF1CF86954E
:102100007105610508940895E894BB276627772731
:10211000CB0197F908950E949E100C9451100E94D3
:10212000431038F00E944A1020F0952311F00C94CF
:102130003A100C94401011240C9485100E946210E7
:1021400070F3959FC1F3950F50E0551F629FF0010A
:10215000729FBB27F00DB11D639FAA27F00DB11D23
:10216000AA1F649F6627B00DA11D661F829F2227AC
:10217000B00DA11D621F739FB00DA11D621F839F33
:10218000A00D611D221F749F3327A00D611D231F09
:10219000849F600D211D822F762F6A2F11249F5757
:1021A00050409AF0F1F088234AF0EE0FFF1FBB1F5A
:1021B000661F771F881F91505040A9F79E3F510519
:1021C00080F00C943A100C9485105F3FE4F3983E35
:1021D000D4F3869577956795B795F795E7959F5FC3
:1021E000C1F7FE2B880F911D9695879597F9089555
:1021F000DB018F939F930E947B0EBF91AF91A29FB3
:10220000800D911DA39F900DB29F900D11240895F4
:10221000991B79E004C0991F961708F0961B881F38
:102220007A95C9F7809508950E94B00EB7FF08957A
:10223000821B930B0895002E083090F0982F872F63
:10224000762F652F542F432F322F22270850F4CF9B
:10225000220F331F441F551F661F771F881F991FAA
:102260000A95B2F7002D089597FD1094002E0830BE
:1022700098F00850232F342F452F562F672F782F93
:10228000892F912DF4CF159497958795779567951C
:1022900057954795379527950A95AAF71124002D4C
:1022A0000895EE0FFF1F0590F491E02D0994F89426
:1022B000FFCF000000002C018C00B9007901EA007A
:1022C000C800DC000D0A007261696E2064657465E7
:0622D00063746564000068
:107E0000112484B714BE81FFF0D085E080938100F7
:107E100082E08093C00088E18093C10086E0809377
:107E2000C20080E18093C4008EE0C9D0259A86E02C
:107E300020E33CEF91E0309385002093840096BBD3
:107E4000B09BFECF1D9AA8958150A9F7CC24DD24C4
:107E500088248394B5E0AB2EA1E19A2EF3E0BF2EE7
:107E6000A2D0813461F49FD0082FAFD0023811F036
:107E7000013811F484E001C083E08DD089C08234E0
:107E800011F484E103C0853419F485E0A6D080C0E4
:107E9000853579F488D0E82EFF2485D0082F10E0AE
:107EA000102F00270E291F29000F111F8ED06801E7
:107EB0006FC0863521F484E090D080E0DECF843638
:107EC00009F040C070D06FD0082F6DD080E0C81688
:107ED00080E7D80618F4F601B7BEE895C0E0D1E017
:107EE00062D089930C17E1F7F0E0CF16F0E7DF06D8
:107EF00018F0F601B7BEE89568D007B600FCFDCFD4
:107F0000A601A0E0B1E02C9130E011968C91119780
:107F100090E0982F8827822B932B1296FA010C0160
:107F200087BEE89511244E5F5F4FF1E0A038BF0790
:107F300051F7F601A7BEE89507B600FCFDCF97BE46
:107F4000E89526C08437B1F42ED02DD0F82E2BD052
:107F50003CD0F601EF2C8F010F5F1F4F84911BD097
:107F6000EA94F801C1F70894C11CD11CFA94CF0C13
:107F7000D11C0EC0853739F428D08EE10CD085E9AC
:107F80000AD08FE07ACF813511F488E018D01DD067
:107F900080E101D065CF982F8091C00085FFFCCF94
:107FA0009093C60008958091C00087FFFCCF809118
:107FB000C00084FD01C0A8958091C6000895E0E648
:107FC000F0E098E1908380830895EDDF803219F02E
:107FD00088E0F5DFFFCF84E1DECF1F93182FE3DFCA
:107FE0001150E9F7F2DF1F91089580E0E8DFEE27F6
:047FF000FF270994CA
:027FFE00040479
:00000001FF
